:060000000A128A110C280F
:10000800FE00030EF0000A08F1000A128A15F82B08
:100018000A128A110F28FB0183120313EF018313BD
:10002800A0308400C9300A128A154B230A128A119B
:10003800831790308400B0300A128A154B230A12B5
:100048008A1183010A128A11742E83120313B901CB
:100058000030BD000030BC000030BB000030BA00EA
:100068002408BE002708803AFF0080307F02031D65
:100078003F28253026020318422843284B2883129C
:10008800031326032704031D4A284B285228163039
:1000980083160313A9000030AA001B2A3E0803197F
:1000A800562857281B2A3E08840083170008031D7A
:1000B8005E285F2860281B2A3E0884000008BF00CD
:1000C8006B280130BE073E0884000008BF002030BE
:1000D8003F060319702871286528F7303F07A900E3
:1000E80005302902031C79287A2865282D303F0617
:1000F800031D7F28802889280130B9000130BE07F8
:100108003E0884000008BF0090282B303F06031DDE
:100118008E288F289028822830303F06031D952886
:10012800962811290130BE073E0884000008BF0048
:10013800260827040319A128A228A9281030260672
:100148002704031DA828A928062978303F06031983
:10015800AE28AF28B52858303F06031DB428B52867
:1001680006291030A6000030A7000130BE073E085F
:1001780084000008BF0020303F04A9009F302907F1
:10018800AA001A302A020318CA28CB28ED289F3063
:100198003F07A9001A302902031CD328D428DC28D9
:1001A8003F08A900AA012908B1002A08B200E428DA
:1001B8003F085F39A900AA012908B1002A08B2003E
:1001C800C9303107A900103029020318EC28ED289E
:1001D800022920303F04A9009F302907AA001A30BD
:1001E8002A02031CF828F9281129D0303F07A90052
:1001F8000A302902031C0129022911293915013065
:10020800BE021B2A391526082704031D0C290D29AF
:1002180011290830A6000030A70026082704031D6E
:10022800162917291B290A30A6000030A70028081C
:1002380003191F29202936293918232924292D296A
:100248007F30B800FF30B700FF30B600FF30B50090
:100258003E298030B8000030B7000030B6000030CA
:10026800B5003E29FF30B800FF30B700FF30B600B8
:10027800FF30B5003D08B0003C08AF003B08AE00B9
:100288003A08AD0020303F04A9009F302907AA0092
:100298001A302A020318512952296F299F303F0723
:1002A800A9001A302902031C5A295B2963293F082F
:1002B800A900AA012908B3002A08B4006B293F083D
:1002C8005F39A900AA012908B3002A08B400330835
:1002D800C93EBF007A29D0303F07A9000A30290259
:1002E800031877297829062A3030BF022708803A70
:1002F800803C031D812926083F02031C8429852987
:100308008629062A83120313B9188B298C29FD29FB
:100318003F08A900AA01AB01AC012608F200270892
:10032800F3000030F31BFF30F400F5003D08F9003E
:100338003C08F8003B08F7003A08F6000A128A154C
:100348002D250A128A11720883120313A90773084C
:100358000318730FB029B129AA0774080318740F7A
:10036800B629B729AB0775080318750AAC072C0816
:10037800BD002B08BC002A08BB002908BA003008B9
:100388003D02031DD1292F083C02031DD1292E0847
:100398003B02031DD1292D083A02031CD429D52973
:1003A800EC2928080319D929DA29FD293D0838023A
:1003B800031DE8293C083702031DE8293B083602DB
:1003C800031DE8293A0835020318EB29EC29FD2911
:1003D8003808BD003708BC003608BB003508BA002D
:1003E800223083160313A9000030AA0083120313D6
:1003F800B9140130BE073E08840083170008BF0007
:1004080039153E290330831203133905A90029033E
:10041800031D0F2A102A1B2ABA09BB09BC09BD09EA
:10042800BA0A0319BB0A0319BC0A0319BD0A8312C5
:1004380025080319202A212A2C2A3919242A252A91
:10044800272A2408BE00250884003E08831380005C
:100458003D08A7003C08A6003B08A5003A08A400F0
:100468000800831203134E088400831300088400D5
:100478000A128A1500200A128A11253A031D452AF4
:10048800462A662B4E088400013080070030831608
:100498000313A700A80027082804031D542A562A76
:1004A8000130572A003083120313EF004E088400EE
:1004B8000008F2001130F3000330F4000030F500BA
:1004C8000A128A1579250A128A1172087304031D03
:1004D8006E2A6F2AB42A831203134E08840003304D
:1004E800831380074C08C0004D08C1005430C20077
:1004F8000A128A1175250A128A11831203134108F8
:10050800D9004008D8005908803AFF0080307F029F
:10051800031D902A01305802031C932A942AAD2AFD
:10052800831203134F0884008317501C8313000899
:10053800FF00023080077F08840083130008D10081
:10054800840A0008D2005108D300530884005408D4
:100558008000831203135908CD005808CC001A2CC8
:10056800831203134E0884008313000884000A12C0
:100578008A1500200A128A11753A031DC42AC52A51
:10058800042B4E088400013080074C08C0004D0839
:10059800C1005430C2000A128A1175250A128A1144
:1005A800831203134108D9004008D8005908803A3B
:1005B800FF0080307F02031DE32A01305802031C2C
:1005C800E62AE72AAD2A831203134F08840083170B
:1005D800501C83130008FF00023080077F08840046
:1005E80083130008D100840A0008D2005108D30000
:1005F8005308840054088000840A55088000AD2AF6
:100608004E088400000884000A128A1500200A1285
:100618008A11253A031D112B122B612B4C08AA00B5
:100628004D08AB000A128A15BA240A128A118312DD
:1006380003134C08F4004D08F5000A128A153327F5
:100648000A128A11750883120313DB007408DA0092
:1006580025305A065B04031D322B332B452B4E08DD
:100668008400013083138007013083160313A30726
:100678000318A40A0030A40783120313CC01CD0188
:100688001A2C5A0A031D4D2B5B0A03194C2B4D2BB0
:100698005A2B5B08F3005A08F2004C08F4004D0886
:1006A800F5000A128A15DB250A128A11FE30831218
:1006B8000313CC00FF30CD001A2C4E088400013003
:1006C8008007402B4C08F4004D08F5000A128A15E3
:1006D80033270A128A11750883120313DB00740882
:1006E800DA004E0884008313000884000A128A1571
:1006F80000200A128A11203A0319832B842B952B88
:100708004E088400000884000A128A1500200A1284
:100718008A11F73ED100053051020318942B952B0E
:10072800F82B4E088400013080074E08840000082A
:1007380084000A128A1500200A128A11203A031925
:10074800A62BA72B952B4E088400000884000A12BC
:100758008A1500200A128A11F73ED100053051028D
:10076800031CB72BB82B952BD22B01308316031300
:10077800A3070318A40A0030A407831203134C0824
:10078800F4004D08F5000A128A1533270A128A1157
:10079800750883120313DB007408DA0020305A0648
:1007A8005B040319D82BD92BB92BF7305A07D10082
:1007B80005305102031CE12BE22BB92B5A0A031D09
:1007C800EA2B5B0A0319E92BEA2B402B5B08F300A1
:1007D8005A08F2004C08F4004D08F5000A128A1570
:1007E800DB250A128A11402B4E0884000008840079
:1007F8000A128A1500200A128A11D100D2015B0858
:100808005206031D092C5A085106031D0C2C0D2CE9
:100818000E2C332B5A0A031D152C5B0A031D152CAD
:10082800162C4D2BFF30CC00FF30CD000800831272
:100838000313B2000130AE00AF01B0010C30320634
:10084800031D272C282C2C2C7730AF003030B0001B
:100858002F088038F80002300A128A15F3240A1289
:100868008A117F30F80004300A128A15F3240A121C
:100878008A118030F8000A300A128A15F3240A1205
:100888008A11F80101300A128A15F3240A128A1112
:1008980083120313B401B501672C34082407A80098
:1008A8002808840083130008F80009300A128A1502
:1008B800F3240A128A11013083120313B4070318B0
:1008C800B50A0030B5072508A800A901290835028E
:1008D800031D702C28083402031C732C742C512C13
:1008E8003208F80001300A128A15F3240A128A1114
:1008F8000C30831203133206031D832C842C922C94
:100908000D300A128A1583240A128A118038F800D9
:100918000D300A128A15F3240A128A11E83083125C
:100928000313B4000330B500BF2C04300A128A1533
:1009380083240A128A1183120313B3003308300583
:100948000319A72CA82CA92CC72C331CAC2CAD2C14
:10095800AE2CC72C0130B4020030031CB503B5021D
:10096800073083120313A9007C30A800A80BBA2C07
:10097800A90BBA2C00008312031334083504031D95
:10098800C62CC72C992C0D300A128A1583240A12FA
:100998008A11F8007F30F8050D300A128A15F32401
:1009A8000A128A1183120313340835040319DD2C43
:1009B800DE2C712D06300A128A1583240A128A1138
:1009C8001B39031DE82CE92C712D83120313AE018A
:1009D8000C303206031DF12CF22C712D0A300A124C
:1009E8008A1583240A128A1183120313B3000C3068
:1009F8000A128A1583240A128A1183120313B1007A
:100A08000730B105310803190A2D0B2D302D330895
:100A1800A800A9010310A80DA90D0310A80DA90D80
:100A28000310A80DA90D31082807AA0000300318E3
:100A380001302907AB002A08F83EAC002B08031840
:100A4800013EFF3EAD00270884002C088313800078
:100A5800840A2D088000442D3308A800A90103103A
:100A6800A80DA90D0310A80DA90D0310A80DA90D17
:100A780027088400280883138000840A2908800036
:100A880011303302031C492D4A2D4C2D1030B30070
:100A9800B401B501642D34082607A800280884008D
:100AA80009300A128A1583240A128A1183138000D6
:100AB800013083120313B4070318B50A0030B507D1
:100AC8003308A800A90129083502031D6D2D28083F
:100AD8003402031C702D712D4F2D831203132E0821
:100AE8000800831203134008AA004108AB000A1249
:100AF8008A15BA240A128A118316031327082804B0
:100B0800031D872D882D8F2D1F3083120313C500D9
:100B18000030C600992D280883120313C6008316D7
:100B28000313270883120313C500C801C901112E36
:100B38004008F4004108F5000A128A1533270A1202
:100B48008A11750883120313CB007408CA004A0A75
:100B5800031DB22D4B0A031DB22DB32DC92D8316CB
:100B6800031327082804031DBA2DBB2DC32D831298
:100B7800031348084904031DC22DC32DC92D831230
:100B88004B08C1004A08C000732E48084904031DD9
:100B9800CE2DCF2DF22D2B304A064B040319D52D1F
:100BA800D62DDD2D2D304A064B04031DDC2DDD2D01
:100BB800F22D4808903E84004A08831780000130CF
:100BC800C8070318C90A0030C90701308316031380
:100BD800A3070318A40A0030A407112ED0304A072F
:100BE800C3000A304302031CFA2DFB2DDD2D4A0AEF
:100BF800031D032E4B0A0319022E032E2B2E4B081E
:100C0800F3004A08F2004008F4004108F5000A120F
:100C18008A15DB250A128A112B2E83124908803A7D
:100C2800C3004608803A4302031D1C2E45084802AB
:100C380003181F2E202E2B2E003083120313490277
:100C48001F3003194802031C2A2E2B2E9C2D8312B9
:100C580003134808903E8400831780019030A40055
:100C68004730A5000A30A6000030A700A8010A12E4
:100C78008A1129200A128A11831203134208840058
:100C8800240883138000840A25088000840A260823
:100C98008000840A270880008316031329082A0481
:100CA800031D572E582E6E2E83120313480849042D
:100CB80003195F2E602E6E2E6F080319642E662EA0
:100CC8000130672E0030C300C4014308C000440847
:100CD800C100732EFE308312C000FF30C10008002F
:100CE800831603138801F030860005140A128A154A
:100CF800DE230A128A110A128A1535230A128A116A
:100D08000A128A153C230A128A110A128A116727C5
:100D18000A128A110A128A152A230A128A110A1239
:100D28008A156E230A128A110A128A1553230A1287
:100D38008A110A128A157A230A128A110A128A1546
:100D4800AC230A128A110A128A1541260A128A113C
:100D5800831603132D082E04031DB32EB42E1E2F45
:100D68000A128A1521230A128A11003A031DBD2E80
:100D7800BE2E0E2F0A128A151F240A128A118316F4
:100D88000313DC005C080319CA2ECB2EEA2E3308A5
:100D9800031DCF2ED02EEA2E2C08803AFF0080307B
:100DA8007F02031DD92E04302B020318DC2EDD2E02
:100DB800EA2E0A128A1593230A128A110130831621
:100DC8000313B3006430AD000030AE008316031384
:100DD80033080319F02EF12E1E2F0A128A156523E7
:100DE8000A128A11013A031DFA2EFB2E1E2F0A122F
:100DF8008A157A230A128A1183160313B301013064
:100E0800AB070318AC0A0030AC076430AD00003003
:100E1800AE001E2F8316031333080319142F152F42
:100E28001E2F0A128A157A230A128A1183160313AF
:100E3800B301092F0A128A155C230A128A11831634
:100E48000313DD005D03031D2A2F2B2F3C2F3208CF
:100E5800031D2F2F302F392F0A128A15C5230A1286
:100E68008A11013083160313B200B101B4014A2F6D
:100E780032080319402F412F4A2F3108031D452FEF
:100E8800462F4A2F0130B100C830B4003108031989
:100E98004E2F4F2FA72E3408031D532F542FA72E44
:100EA8000A128A15AC230A128A1183160313B20197
:100EB800B101FF30AB070318AC0AFF30AC07A72E0F
:100EC8000A128A110C288316031307108711871238
:100ED80007168611831203138611413083120313F8
:100EE800A500ED30A400A40B772FA50B772F7C2F3E
:100EF800831203138615413083120313A500ED30C6
:100F0800A400A40B852FA50B852F8A2F0F30F8007E
:100F180001300A128A15F3240A128A114130831209
:100F28000313A500ED30A400A40B982FA50B982F50
:100F38009D2FA92F073083120313A5007C30A4002E
:100F4800A40BA42FA50BA42F000001300A128A15A8
:100F580083240A128A111039031DB32FB42F9E2F30
:100F68008D30F8002A300A128A15F3240A128A11E1
:100F78003E30F8002B300A128A15F3240A128A111F
:100F88001E30F8002D300A128A15F3240A128A112D
:100F9800F8012C300A128A15F3240A128A114030FB
:100FA800F80015300A128A15F3240A128A113D3006
:100FB800F80011300A128A15F3240A128A11143023
:100FC8000A128A1583240A128A110338F800143089
:100FD8000A128A15F3240A128A1141308312031364
:100FE800A500ED30A400A40BF72FA50BF72FFC2FBD
:020FF8000800EF
:1010000008308A000408840A8207003425346834D2
:10101000683475342C3425346834683475342C3491
:1010200025346834683475342C3425346834683495
:0410300075340034DF
:101642008316031330080800FF30F200FF30F30066
:1016520008008316031306140516080000308312CF
:1016620003138C1A013008008316031387108312A8
:101672000313871008008316031307118312031341
:1016820007110800831203138C1E482B492B432B8E
:101692001A08080064008001840A04060319003451
:1016A20004064C2B8B170B17831603130C1483128F
:1016B20003130C100800031083120313051E0314F6
:1016C2000030031801300800031083120313061CB4
:1016D20003140030031801300800831203131010A2
:1016E200901030309004E7308F0096308E00101446
:1016F20008008312031387140430F3003D30F20014
:10170200F20B812BF30B812B862B83120313871091
:101712007F30F3009E30F200F20B8D2BF30B8D2BFA
:10172200000008008312031387140A30F300BC3050
:10173200F200F20B9A2BF30B9A2B00008312031385
:1017420087107930F3001F30F200F20BA62BF30B57
:10175200A62BAB2B08008312031307150430F300EA
:101762003D30F200F20BB32BF30BB32BB82B8312E9
:10177200031307117F30F3009E30F200F20BBF2BF0
:10178200F30BBF2B000008008312031307150A3066
:10179200F300BC30F200F20BCC2BF30BCC2B00008D
:1017A2008312031307117930F3001F30F200F20B9A
:1017B200D82BF30BD82BDD2B08008316031307134A
:1017C200871781309900181518128312031398177E
:1017D2008316031398168312031318168316031322
:1017E200061286128312031306128612080083124F
:1017F20003130C1CFD2BFE2B182C0C10E7308F0052
:1018020096308E00831603132D082E0403190A2C1A
:101812000B2C112C0130AD020030031CAE03AE02C2
:1018220034080319152C162C182C0130B402710837
:101832008A00700E8300FE0E7E0E09000730F8004B
:101842000D300A128A15F3240A128A1526308312E1
:101852000313B6003630A400A501A50A3630A6004F
:101862003A30A7000C300A128A111B240A128A1578
:1018720083120313B800B9013808031D412C422C0E
:101882004B2C10303A063B04031D482C492C4B2CA0
:101892000130B90039080800673083160313CB0002
:1018A20083120313650883160313CC000030CD00A6
:1018B200CE01CF01D301D401CC3083120313DC005B
:1018C2000030DD006608DE00CB30DF000A128A1528
:1018D200B5260A128A15831203135D0883160313B1
:1018E200CA00831203135C0883160313C9004A0853
:1018F20083120313E60083160313490883120313AA
:10190200E5000800F300F5018312031307107308C2
:10191200F20072077E398038F400F6018711F41B59
:10192200932C972C8312031387169A2C831203137A
:1019320087120310F40D87150130F607083076027E
:10194200031CA42CA52C8F2CF701871187150310DB
:10195200F50D071EAD2CAE2CAF2C75140130F70718
:1019620008307702031CB62CB72CA62C0714750876
:101972000800D92C20302C062D040319C12CC22CAE
:10198200D92CF7302C07FA0005307A02031CCA2C36
:10199200CB2CD92C2D08F3002C08F2002A08F400D5
:1019A2002B08F5000A128A15DB250A128A15F22C79
:1019B200831203132A08F4002B08F5000A128A1571
:1019C20033270A128A15750883120313AD007408AF
:1019D200AC002C0A031DF12C2D0A031DF12CF22C54
:1019E200BB2C080083120313A00007102008F90083
:1019F2007907A1007E30A105A2018711A11B022D4A
:101A0200062D831203138716092D831203138712DF
:101A12000310A10D87150130A20708302202031C12
:101A2200132D142DFE2CA3018711F81B192D1D2D2A
:101A3200831203138716202D8312031387120310B8
:101A4200F80D87150130A30708302302031C2A2D45
:101A52002B2D152D07140800003083120313A30049
:101A62000030A2000030A1000030A000721C3A2D0C
:101A72003B2D542D760883120313A0077708031118
:101A82000318013E0319462DA10778080311031814
:101A9200013E03194D2DA207790803110318013ED7
:101AA2000319542DA3070130FA000310F60DF70DA8
:101AB200F80DF90DFA0B562D01300310F50CF40C4C
:101AC200F30CF20CFF3E031D5E2D750874047304C3
:101AD2007204031D6D2D6E2D372D831203132308FF
:101AE200F5002208F4002108F3002008F2000800A3
:101AF2000130F4020030031CF503F502740A031DE1
:101B0200862D750A031D862D872D942DF201F30172
:101B1200DA2D0130F2070130F3070130F402003010
:101B2200031CF503F502720884000A128A150020CC
:101B32000A128A15003A03199F2DA02DC62D73088B
:101B420084000A128A1500200A128A15003A031923
:101B5200AB2DAC2DC62D740875040319B12DB22D11
:101B6200C62D730884000A128A1500200A128A15EB
:101B7200F600720884000A128A1500200A128A15D9
:101B820076060319C52DC62D8A2D720884000A1205
:101B92008A1500200A128A15F600730884000A12B8
:101BA2008A1500200A128A157602F200F301031C3C
:101BB200F3030800720A031DE22D730A031DE22DCE
:101BC200E32DE42D402E74087504031DE92DEA2D42
:101BD200F92D03307B060319EF2DF02D402E7B08E3
:101BE200A03E84007208831380000130FB07402E60
:101BF2007408073EF60075080318013E003EF70020
:101C0200760884008317771C83130008F800840A7F
:101C12000008F9000330780679040319112E122EF8
:101C2200402E7408073EF60075080318013E003E78
:101C3200F700760884008317771C83130008043E9C
:101C42007407F80075080318013EF900780884004B
:101C52008317791C8313720880007408073EF6000C
:101C620075080318013E003EF700760884008317CA
:101C7200771C831301308007840A0318800A080046
:101C82000A128A152F230A128A15003A03194A2EBC
:101C92004B2EB42E0A128A1543230A128A15831672
:101CA2000313D7000A305706031D582E592EA62EAD
:101CB2002F08B53E840083138001AF01B530831233
:101CC2000313E5000130E600D830E7000030E800F9
:101CD200D930E9000030EA00DA30EB000030EC00E5
:101CE200DB30ED000030EE000A128A154D240A1294
:101CF2008A1504308312031365066604031D822EBF
:101D0200832EB42E831603135803031D892E8A2EA5
:101D1200A02E5903031D8E2E8F2EA02E5A03031DB3
:101D2200932E942EA02E5B03031D982E992EA02E87
:101D32000130B0008312031306168612B42EB001CE
:101D42008312031306128616B42E13302F020318C1
:101D5200AB2EAC2EB42E2F08B53E84005708831349
:101D620080000130AF070800831203135E08E4000D
:101D720083160313A301A401A501A6012A08831255
:101D82000313E10083160313290883120313E000EF
:101D9200F62E83160313A901AA01831203135C080A
:101DA200CC005D08CD006430CE005F08CF0000306B
:101DB200D0000A128A1135220A128A1583120313DD
:101DC2004D08E3004C08E200E31FE82EE92EEA2E5C
:101DD200032F620883160313A5070318A60A8312AA
:101DE2000313630883160313A6078312640884008F
:101DF2000A128A1500200A128A15003A031D022FC0
:101E0200032FCA2E610883160313AA008312031339
:101E1200600883160313A90083120313620A031DC9
:101E2200162F630A031D162F172F262F831603134F
:101E320025082604031D1E2F1F2F262F831203138E
:101E42006308DD006208DC00322F831603132608C4
:101E520083120313DD008316031325088312031371
:101E6200DC00080074087504031D382F392F582F21
:101E72007B08031D3D2F3E2F482F0A128A1525236A
:101E82000A128A157308F7007208F600FB2F013058
:101E9200FB027B08A03E8400831300088312031315
:101EA200A000A1012008F6002108F700FB2F74080A
:101EB200073E83120313A00075080318013E003E7B
:101EC200A100200884008317211C83130008A200AC
:101ED200840A0008A300220823040319712F722F19
:101EE200AD2F7408073EA00075080318013E003E9E
:101EF200A100200884008317211C8313FF30800770
:101F0200840F00080318000AFF00FF307F078000DB
:101F120084030008A200840A0008A30004302207F8
:101F2200A40024087407A6007508A5000318A50AD2
:101F3200A41F9C2FA503831203132508A7002608BC
:101F420084008317271C83130008A800A90128080E
:101F5200F6002908F700FB2F740884008317751C0C
:101F620083130008A000840A0008A1007408023E3E
:101F7200A20075080318013E003EA3002208840057
:101F82008317231C831300082007A5002108A4003F
:101F92000318A40A801FCE2FA4038312031324085C
:101FA200A600250884008317261C83130008A700B7
:101FB200A8012708F6002808F70076087704031D11
:101FC200E32FE42FE92FFF30F600FF30F700FB2F5D
:101FD2007408023EA00075080318013E003EA100ED
:101FE200200884008317211C831301308007840A90
:0E1FF2000318800A7708F5007608F40008004E
:02400E003A3F37
:00000001FF
